:100000000C9462000C948A000C948A000C948A0070
:100010000C948A000C948A000C948A000C948A0038
:100020000C948A000C948A000C948A000C948A0028
:100030000C948A000C948A000C948A000C948A0018
:100040000C94BA040C948A000C948A000C948A00D4
:100050000C948A000C948A000C948A000C948A00F8
:100060000C948A000C948A000000000024002700F1
:100070002A0000000000250028002B0000000000DE
:1000800023002600290004040404040404040202DA
:100090000202020203030303030301020408102007
:1000A0004080010204081020010204081020000012
:1000B0000008000201000003040700000000000027
:1000C0000000DE0711241FBECFEFD8E0DEBFCDBF9A
:1000D00011E0A0E0B1E0E4E8F0E102C005900D928B
:1000E000A032B107D9F721E0A0E2B1E001C01D9232
:1000F000AD38B207E1F710E0C2E6D0E004C02197C6
:10010000FE010E943508C136D107C9F70E940405D7
:100110000C9440080C940000CF92DF92EF92FF9273
:100120000F931F93CF93DF936C017A018B01C0E093
:10013000D0E0CE15DF0589F0D8016D918D01D60193
:10014000ED91FC910190F081E02DC6010995892B7C
:1001500011F47E0102C02196ECCFC701DF91CF914F
:100160001F910F91FF90EF90DF90CF900895833013
:1001700081F028F4813099F08230A1F00895873021
:10018000A9F08830B9F08430D1F4809180008F7D5F
:1001900003C0809180008F7780938000089584B59C
:1001A0008F7702C084B58F7D84BD08958091B000A3
:1001B0008F7703C08091B0008F7D8093B000089549
:1001C000CF93DF93282F30E0F901E255FF4F849160
:1001D000F901E656FF4FD491F901EA57FF4FC49158
:1001E000CC2391F081110E94B700EC2FF0E0EE0FCC
:1001F000FF1FE458FF4FA591B491EC91ED2381E0EE
:1002000090E021F480E002C080E090E0DF91CF91A7
:1002100008951F93CF93DF93282F30E0F901E25523
:10022000FF4F8491F901E656FF4FD491F901EA5747
:10023000FF4FC491CC23C9F0162F81110E94B70043
:10024000EC2FF0E0EE0FFF1FEE58FF4FA591B49199
:100250008FB7F894111105C09C91ED2FE095E9231B
:1002600002C0EC91ED2BEC938FBFDF91CF911F91EA
:100270000895CF93DF9390E0FC01E656FF4F249161
:10028000FC01EA57FF4F8491882361F190E0880FC9
:10029000991FFC01E859FF4FC591D491FC01EE581C
:1002A000FF4FA591B491611109C09FB7F89488815F
:1002B000209582238883EC912E230BC0623061F459
:1002C0009FB7F8943881822F809583238883EC919F
:1002D0002E2B2C939FBF06C08FB7F894E8812E2B4E
:1002E00028838FBFDF91CF9108953FB7F894809115
:1002F000210190912201A0912301B091240126B502
:10030000A89B05C02F3F19F00196A11DB11D3FBF4D
:10031000BA2FA92F982F8827820F911DA11DB11DDB
:10032000BC01CD0142E0660F771F881F991F4A95D7
:10033000D1F70895CF93DF93EC0160E08E810E94A6
:10034000090161E08E810E94090160E08E810E94B6
:1003500009018BE891E00197F1F7DF91CF910895C2
:10036000CF92DF92EF92FF920F931F93CF93DF9381
:100370007C016C0187E0C80ED11CC0E0D0E0062FE4
:1003800010E0B8010C2E02C0759567950A94E2F74B
:100390006170F60181916F010E9409012196C430BC
:1003A000D10579F7C701DF91CF911F910F91FF9090
:1003B000EF90DF90CF900C949A01CF92DF92EF9262
:1003C000FF920F931F93CF93DF93EC01F62E642FD0
:1003D0008C810E9409018D818F3F19F060E00E949D
:1003E00009018F850F2D10E084FF25C06E0187E085
:1003F000C80ED11CE12CF12CB8010E2C02C0759551
:1004000067950A94E2F76170F60181916F010E948D
:100410000901FFEFEF1AFF0A88E0E816F10461F71F
:10042000CE01DF91CF911F910F91FF90EF90DF9060
:10043000CF900C949A01B80184E0759567958A95E0
:10044000E1F7CE010E94B0016F2DCE01DF91CF9177
:100450001F910F91FF90EF90DF90CF900C94B0011F
:1004600041E00E94DD0181E090E0089540E00C94BD
:10047000DD01EF92FF920F931F93CF93DF93EC0177
:10048000623018F08F8588608F876B8B1C8A80E4C0
:100490008D8B80E18E8B80E58F8B61E08C810E945B
:1004A00039018D818F3F19F061E00E94390161E0CF
:1004B0008E810E9439017E0187E0E80EF11C00E088
:1004C00010E08F8584FD03C084E090E002C088E0E6
:1004D00090E0081719074CF461E0F70181917F0162
:1004E0000E9439010F5F1F4FECCF8BE39DE0019716
:1004F000F1F760E08C810E94090160E08E810E942A
:1005000009018D818F3F19F060E00E9409016F851C
:1005100064FD1DC063E0CE010E94B0010BE416E44F
:10052000C8010197F1F763E0CE010E94B001C80154
:100530000197F1F763E0CE010E94B00183E592E0FC
:100540000197F1F762E0CE010E94B00116C060622F
:10055000CE010E9436028BE496E40197F1F76F8595
:100560006062CE010E94360283E592E00197F1F7C6
:100570006F856062CE010E9436026F856062CE0197
:100580000E94360284E0888B6CE0CE010E94360225
:1005900061E0CE010E9436028BE39FE10197F1F703
:1005A00082E0898B66E0CE01DF91CF911F910F91A0
:1005B000FF90EF900C943602643008F063E0909165
:1005C0008801691710F06FEF690FE62FF0E0EB5824
:1005D000FE4F9489682F690F606885E791E00C945D
:1005E0003602089580E090E008958430910540F54A
:1005F0002FB7F89440912501509126016091270171
:10060000709128012FBF880F991F880F991FFC0137
:10061000E35AFE4F40835183628373832FB7F8946C
:100620004091250150912601609127017091280188
:100630002FBFFC01E35BFE4F4083518362837383D2
:100640000895009769F0FC0101900020E9F73197C7
:10065000AF01481B590BBC0185E791E00C948C005D
:1006600080E090E00895CF92DF92EF92FF920F9397
:100670001F93CF93DF93CDB7DEB7A1970FB6F89452
:10068000DEBF0FBECDBF9B01AC0119A28E010F5D75
:100690001F4F8AE0C82ED12CE12CF12CCA01B901E0
:1006A000A70196010E941308605DF80162938F0113
:1006B000211531054105510589F7CF010E9421031C
:1006C000A1960FB6F894DEBF0FBECDBFDF91CF91DC
:1006D0001F910F91FF90EF90DF90CF9008958130A0
:1006E0009105C9F018F0029759F1089560E080E093
:1006F0000E94DC0286E191E00E94210360E080E03C
:100700000E94DC026091390170913A0180913B01B5
:1007100090913C0129C060E088E00E94DC0286E103
:1007200091E00E94210360E088E00E94DC02609179
:100730003D0170913E0180913F019091400114C0B4
:1007400061E080E00E94DC0286E191E00E942103EA
:1007500061E080E00E94DC02609141017091420101
:1007600080914301909144010C9433030E943B0813
:10077000CF92DF92EF92FF920F931F93CF936B0173
:100780007C01CB010E94FD07182FC60101960E9433
:10079000FD07C82FC60102960E94FD07082FC6015B
:1007A00003960E94FD074C2F50E060E070E0762F2A
:1007B000652F542F4427410F511D611D711D10E0FD
:1007C00020E030E0980111270027400F511F621FE1
:1007D000731F90E0A0E0B0E0B82FAA2799278827E0
:1007E0008A019B01080F191F2A1F3B1FC901B8016D
:1007F000CF911F910F91FF90EF90DF90CF900895D0
:10080000CF92DF92EF92FF92CF93DF93EC016A01D8
:100810007B01642F0E9405089927F7FC9A958F2D7C
:100820007E2D6D2DCE0101960E940508B7019927F6
:1008300077FD9095892FCE0102960E9405086F2DB5
:10084000772788279927CE010396DF91CF91FF90D4
:10085000EF90DF90CF900C9405088130910591F1D5
:100860008230910509F459C0892B09F082C040916A
:10087000290150912A0160912B0170912C014F5F49
:100880005F4F6F4F7F4F4093290150932A01609330
:100890002B0170932C01403482E458078FE06807E5
:1008A000710568F08FE392E4AFE0B0E08093290136
:1008B00090932A01A0932B01B0932C01089580E01E
:1008C00090E055C040912D0150912E0160912F0173
:1008D000709130014E5F5F4F6F4F7F4F40932D01FE
:1008E00050932E0160932F0170933001403482E4C5
:1008F00058078FE06807710568F08FE392E4AFE076
:10090000B0E080932D0190932E01A0932F01B0931E
:100910003001089584E090E02AC040913101509167
:10092000320160913301709134014F5F5F4F6F4F1F
:100930007F4F4093310150933201609333017093A4
:100940003401403482E458078FE06807710568F08D
:100950008FE392E4AFE0B0E08093310190933201F5
:10096000A0933301B0933401089588E090E00C9493
:10097000000408951F920F920FB60F9211242F9327
:100980003F938F939F93AF93BF9380912501909155
:100990002601A0912701B09128013091200123E088
:1009A000230F2D3720F40196A11DB11D05C026E8A7
:1009B000230F0296A11DB11D2093200180932501D4
:1009C00090932601A0932701B093280180912101E3
:1009D00090912201A0912301B09124010196A11DC3
:1009E000B11D8093210190932201A0932301B09324
:1009F0002401BF91AF919F918F913F912F910F90C3
:100A00000FBE0F901F901895789484B5826084BDB6
:100A100084B5816084BD85B5826085BD85B5816002
:100A200085BD80916E00816080936E001092810080
:100A3000809181008260809381008091810081603B
:100A400080938100809180008160809380008091FC
:100A5000B10084608093B1008091B0008160809388
:100A6000B00080917A00846080937A0080917A004F
:100A7000826080937A0080917A00816080937A000E
:100A800080917A00806880937A001092C10060E0C3
:100A900070E0CB010E94B8036093290170932A0192
:100AA00080932B0190932C0164E070E080E090E053
:100AB0000E94B80360932D0170932E0180932F0143
:100AC0009093300168E070E080E090E00E94B8030D
:100AD000609331017093320180933301909334011C
:100AE000A9E3B1E0E9E2F1E00FE312E42FE030E046
:100AF000EF014081518162817381403452446F40E3
:100B0000710520F00083118322833383349648815A
:100B100059816A817B814D935D936D937D9381E0D3
:100B2000E933F80729F7CEE0D1E01881229660E09A
:100B3000812F0E94390161E0812F0E940901E1E0CB
:100B4000C631DE0791F762E085E791E00E94390245
:100B500061E085E791E00E9436028BE39FE1019717
:100B6000F1F760E080E00E94DC0260913901709151
:100B70003A0180913B0190913C010E94330360E077
:100B800088E00E94DC0260913D0170913E018091FD
:100B90003F01909140010E94330361E080E00E9498
:100BA000DC0260914101709142018091430190917A
:100BB00044010E943303F0E02F2EF0E03F2E0E940C
:100BC00075014B015C01E2E3CE2ED12CE12CF12C1E
:100BD0000E947501DC01CB0188199909AA09BB099A
:100BE000883E9340A105B10558F0F1E0CF1AD10835
:100BF000E108F10828EE820E23E0921EA11CB11C30
:100C0000C114D104E104F10419F701E711E06DE426
:100C1000C62E61E0D62E7EE0A72E71E0B72EE12C25
:100C2000F12CC0E0D0E0D0930101C09300018C2FE3
:100C30000E94E000892B09F03DC1C330D10509F4C1
:100C4000B5C0F8018081811117C0CE010E94F50264
:100C500081E0F8018083FE01E359FE4F8081882303
:100C600009F495C1CE010E942D04E0910001F0919C
:100C70000101E359FE4F1CC12FB7F8948091250163
:100C800090912601A0912701B09128012FBFF60174
:100C900080839183A283B3838091000190910101AD
:100CA0009C01220F331F220F331FF901E35AFE4F1D
:100CB0004080518062807380F901E35BFE4F408188
:100CC000518162817381441555056605770520F4CD
:100CD000415051096109710944195509660977099B
:100CE000483EF3E05F076105710528F021E0FC0153
:100CF000E359FE4F2083FC01E75BFE4F2081211169
:100D000015C048355B416105710510F10E942D0445
:100D10008091000190910101FC01E75BFE4F21E011
:100D20002083FC01E359FE4F108210C040345C491F
:100D30006105710568F00E942D0480910001909179
:100D40000101FC01E75BFE4F21E020830E94F502D8
:100D500080910001909101019C01220F331F220F0D
:100D6000331FF901E35AFE4F408051806280738047
:100D7000F901E35BFE4F408151816281738144152B
:100D800055056605770520F441505109610971093F
:100D90004419550966097709F901E75CFE4F40835C
:100DA0005183628373830E946F03F1C08091740149
:100DB000811108C083E090E00E94F50281E08093F9
:100DC0007401E5C02FB7F894809125019091260118
:100DD000A0912701B09128012FBF809359019093D2
:100DE0005A01A0935B01B0935C0180910001909146
:100DF0000101880F991F880F991FFC01E35AFE4FCC
:100E00004081518162817381FC01E35BFE4F8081EF
:100E10009181A281B38184179507A607B70718F4BB
:100E20000197A109B109841B950BA60BB70B883854
:100E30009341A105B10508F4AAC040E050E0BA0111
:100E400080E090E00E94000440E050E0BA0184E0BD
:100E500090E00E94000440E050E0BA0188E090E099
:100E60000E94000489E3882E81E0982E99E2692E81
:100E700091E0792E412C512CF30111921192119293
:100E800011923F01F40111921192119211924F01AE
:100E9000C2010E946F03FFEF4F1A5F0A24E042165F
:100EA000510451F7E0910001F0910101EF58FE4F1C
:100EB00010826DC0F50180810E94E000019709F069
:100EC00066C0F8018081882309F461C01082F701AF
:100ED000E35AFE4F1082118212821382F6011082B1
:100EE000118212821382FE01E75BFE4F1082F7012E
:100EF000E75DFE4F80819181A281B381F701E75CBC
:100F0000FE4F80839183A283B38360E080E00E94E0
:100F1000DC0286E191E00E94210360E088E00E940B
:100F2000DC0286E191E00E94210361E080E00E9402
:100F3000DC0286E191E00E94210360E080E00E94F3
:100F4000DC026091390170913A0180913B019091EE
:100F50003C010E94330360E088E00E94DC02609163
:100F60003D0170913E0180913F01909140010E94AE
:100F7000330361E080E00E94DC02609141017091E6
:100F8000420180914301909144010E9433032196D4
:100F90000F5F1F4FF4E0EF0EF11C24E0C20ED11CD6
:100FA00082E0A80EB11CC430D10509F03CCE21145A
:100FB000310409F404CE0E94000001CEE5E7F1E01F
:100FC0001382128286E091E09183808388E084839B
:100FD0008FEF858389E0868384E0878385E080873F
:100FE00086E0818787E082871386148615861686B9
:100FF000178661E0CF010C943902F999FECF92BDBA
:1010000081BDF89A992780B50895262FF999FECFCA
:101010001FBA92BD81BD20BD0FB6F894FA9AF99A15
:101020000FBE01960895A1E21A2EAA1BBB1BFD015B
:101030000DC0AA1FBB1FEE1FFF1FA217B307E407B7
:10104000F50720F0A21BB30BE40BF50B661F771F0F
:10105000881F991F1A9469F76095709580959095EF
:101060009B01AC01BD01CF010895EE0FFF1F05905C
:10107000F491E02D099481E090E0F8940C944008FC
:04108000F894FFCF12
:10108400FFFF0000000030028C00F202F1020000B9
:101094000100020003002020202020202020000046
:00000001FF
